S01E000052544F532D4F4C45442D58706C61696E65642D50726F2E73726563AD
S214400000F02E4020811740007F1740007F174000A9
S2144000107F1740007F1740007F1740000000000019
S214400020000000000000000000000000591B4000D7
S2144000307F17400000000000F91B4000611C400094
S2144000407F1740007F1740007D3F40006D424000D4
S2144000507F1740007F1740007F1740007F17400003
S2144000607F174000000000007114400085144000D7
S214400070991440007F1740007F1740007F174000CC
S214400080AD144000C11440007F1740007F17400069
S2144000907F1740007F1740007F174000F53E400026
S2144000A0213F40004D3F40007F1740007F174000F3
S2144000B07F174000210440007F1740007F17400014
S2144000C07F1740007F1740007F1740007F17400093
S2144000D0000000007F174000000000007F1740002F
S2144000E0350440007F1740007F1740007F174000D0
S2144000F07F1740007F1740007F1740007F17400063
S2144001007F1740007F1740007F1740007F17400052
S2144001107F174000000000000000000000000000C4
S2144001207F1740007F1740007F1740007F17400032
S2144001307F174000000000007F1740007F174000F8
S21440014010B5054C237833B9044B13B10448AFF3CC
S21440015000800123237010BDC0094020000000002D
S214400160807B40000C4B43B10C480D4910B5AFF3B3
S21440017000800C48036823B910BD0A48036833B9A9
S2144001807047094B002BF7D0BDE810401847064B88
S214400190002BF5D0184700BF00000000807B4000D1
S2144001A0C4094020807B40000000000070B582B04B
S2144001B0026BC36A1340019300241C4E1C4DA84298
S2144001C014BF0020012005010BE00E2C1ED8019A1A
S2144001D004F10C0101238B40134210D10134102C42
S2144001E022D00B2CF1D8019A0123A3401342F5D01C
S2144001F02B1956F82330002BF0D09847EEE72B19F2
S21440020056F82330002BE9D09847E7E7019A04F1E7
S2144002100F0101238B401342E0D02B1956F82330B0
S214400220002BDBD09847D9E702B070BDE00D4020E8
S2144002300040064030B4046E01238B4024EA030499
S2144002401578002D08BF002323430366446D4B00FA
S2144002500321994024EA010451789940214341659D
S21440026030BC70474B780A78134303678A884B88BC
S21440027043EA02434367704700220260084B4360EC
S214400280084B83604FF48023C3600223037401232A
S21440029043748374C274037543758375704700BF97
S2144002A000A3E111808D5B0000230370012343709F
S2144002B070470023037020234370FF23438040F69B
S2144002C0FF73838070470000026B12F0807201D08B
S2144002D01920704710B401230360CB7C002B18BF55
S2144002E04FF000424B688C68B3FBF4F3013B1B02B3
S2144002F09BB2CC6844F4000423430C7C240604F0F0
S214400300706423434C7C240704F040542343134337
S21440031043600B7D002B14BF4FF0807300230A68A8
S21440032013434A7D002A14BF4FF000720022134345
S21440033083608B7D1B0203F4407343F00C03C0F8CC
S21440034094300F4B984206D00E4B98420DD000206A
S2144003505DF8044B70470C4B03F14001002243F814
S214400360042F8B42FBD10020F2E7084B03F14001FB
S214400370002243F8042B8B42FBD10020E8E700BF65
S21440038000C0034000400640DC0D4020200E4020C8
S2144003900C4B994207D00B290BD806D0012303FA01
S2144003A001F141627047436270474FF40063436215
S2144003B070470E2994BF0C310F31012303FA01F127
S2144003C041627047FF0F004738B5114CA0420CBF42
S2144003D0102400240C440F4D45F824200AD10E4A20
S2144003E04FF48074C2F884415B01DBB282F8283354
S2144003F0546009E0084A4FF00054C2F880415B015F
S214400400DBB282F81D331460044B984738BD00BFFA
S21440041000400640E00D402000E100E0910340002F
S21440042008B50248024B984708BD00BF00C00340CD
S214400430AD01400008B50248024B984708BD00BFD2
S21440044000400640AD01400000B583B0134B9842D3
S2144004500CBF28201D20124B9847124B9B78FF2B31
S2144004601AD0EFF31083B3FA83F35B09019372B6A5
S214400470BFF35F8F00220C4B1A700199094A93789C
S2144004800133937029B10122074B1A70BFF35F8F77
S21440049062B603B05DF804FBFEE700BF00400640CE
S2144004A0F5154000D80D40200A00402021B9436889
S2144004B023F0010343607047436843F00103436001
S2144004C070470162704730B485688468A54203D09F
S2144004D085688468AC42FBD161B1C4F3015000EB3F
S2144004E08005C4F3034000EB450014F4800F18BFAA
S2144004F00C30086042B1C4F3023101EB8101C4F311
S214400500032000EB4101116043B1C4F3021202EB39
S214400510820204F00F0404EB42041C6030BC7047B7
S214400520F0B4446814F0010F05D00C2903D90C39F7
S2144005304FF4800700E000271C4CA4FB0356F60847
S21440054006EB8605A3EB450343EA0613A4FB0265C8
S214400550ED0843EA053305EB8505A2EB450543EA7E
S21440056005233B43A4FB0142D20843EA025302EB75
S2144005708202A1EB420143EA0141836913F0040F72
S214400580FBD0036843F001030360836913F0010F57
S214400590FBD00123C3618160036823F0010303603D
S2144005A0C06A00F00100F0BC704700BFCDCCCCCC98
S2144005B0F0B4049EC568C468A54203D0C568C46844
S2144005C0AC42FBD199B1C4F3033000EB8000C4F3D6
S2144005D0032707EB4007C4F3021000EB800504F046
S2144005E00F0000EB4500642505FB0070086042B133
S2144005F0C4F3005081000844C4F3034101EB4001BA
S214400600116043B1C4F3017202EB8202C4F303618A
S21440061001EB42021A6016B1C4F342543460F0BC97
S2144006207047000070B42A4DA5FB0346F608039CAD
S214400630640544EA067406EB8606A3EB460344EAE2
S2144006400363A5FB0264E40843EA045304EB840412
S214400650A2EB440243EA02421E4BA3FB01439B0922
S21440066042EA03121C4BA3FB01435B09A5FB036450
S214400670E40804EB8404A3EB44031A43A5FB0143BC
S214400680DB0803EB8304A1EB440142EA0122A5FB0D
S2144006900315ED0805EB8505A3EB450542EA053253
S2144006A0836913F0040FFBD0036843F00203036032
S2144006B0836913F0010FFBD00123C361C260036856
S2144006C023F002030360C06A00F0020070BC70476B
S2144006D0CDCCCCCCD34D62101F85EB518069704792
S2144006E0C1617047034B1B6843F480231943016084
S2144006F000207047DC09402041B9094A136823F0BE
S214400700807313600268134303607047044A13689B
S21440071043F080731360026813430360704700BF62
S214400720DC0940200268034B1B68194311430160F3
S214400730704700BFDC094020036823EA0101024BF2
S2144007401B68194301607047DC0940208268836853
S2144007509A4203D0826883689342FBD1184670471A
S214400760C068704770B506460D46046804F4803489
S2144007704FF4803109480A4B98472DB94FF0FF3364
S214400780736024B9002070BD013D7560F9E74FF4F1
S21440079080310248034B9847F4E700BF30180E40BC
S2144007A0390740002507400008B5074B984203D05C
S2144007B0064B984204D008BD1520054B984708BD07
S2144007C02A20034B9847F6E700800040008005400B
S2144007D0F5154000436823F47023436043680904DA
S2144007E001F4702119434160704730B443F69924B0
S2144007F0056915F0020F03D1013CF9D101200CE048
S214400800446814F0020F06D0120402F4702211431A
S2144008100BB141F08071C160002030BC704732B9E6
S21440082000EB8100036B23F001030363704700EB8A
S2144008308100036B43F001030363704732B900EB5A
S2144008408100036B23F002030363704700EB8100D3
S214400850036B43F0020303637047042A03D06AB174
S214400860082A16D0704700EB8100036B23F008037C
S2144008700363036B43F004030363704700EB81009C
S214400880036B23F008030363036B23F00403036343
S214400890704700EB8100036B43F008030363E1E716
S2144008A000EB81010B6B23F0F0030B630B6B1A43D9
S2144008B00A637047431E1944B1FBF0F0431EFE2BFB
S2144008C094BF00B24FF0FF3070477AB110B4144670
S2144008D000EB81010B6B23F47F430B630A6B42EA08
S2144008E004220A6300205DF8044B70474FF0FF3047
S2144008F0704710B489014318022444504FF0FF312A
S2144009009962196A5A605DF8044B7047890105235D
S2144009104350704700EB8111CA61704700EB81116C
S2144009204A62704700EB8111086A7047F0B486B09F
S21440093002240194082402942024039480240494DE
S2144009400A9CE40B0594B0EB510F14D84C0CA04213
S21440095017D2012501AF57F82540B1FBF4F4260C19
S21440096084420AD386420DD90135052DF3D10020A5
S21440097006B0F0BC70470020FAE70020F8E70120F8
S214400980F6E700252AB106A901EB850151F8141CAB
S2144009901160002BF3D01D600120E9E7014B186081
S2144009A0704700BFE0094020024B1B6803EBC010B5
S2144009B042547047E0094020024B1B6803EBC010CE
S2144009C0405C7047E0094020002A48D02DE9F047B7
S2144009D014461F4606464A1E2244D2B2914231D0A1
S2144009E01F2A28BF1F221546CC084FEAD20801F01E
S2144009F00702FF2303FA02F2D2B205F00705C5F15B
S214400A00070543FA05F5EDB2444520D03B4601467E
S214400A102046DFF84C90C8470134A0450AD94FF02D
S214400A20FF0A3B46524631462046C8470134E4B2A8
S214400A30A045F6D83B462A4631464046084CA04795
S214400A40BDE8F0871A46074B9847BDE8F0873B4617
S214400A502A4001462046024CA047BDE8F087704732
S214400A60890C4000250C40002DE9F04F85B08146AA
S214400A70009101939DF838B07AB116465500C5F1FD
S214400A80030501274FF000080BF003030293DFF83D
S214400A90F0A00BF00C0303934DE01A46374B9847F3
S214400AA005B0BDE8F08F009B191B09EB0600019BC3
S214400AB03A46C9B2C0B2D047721C0099891B09EBAE
S214400AC00400019BD2B2C9B2C0B2D04738E0009B06
S214400AD0191BA9EB0600019B3A46C9B2C0B2D047E3
S214400AE0721C0099891BA9EB0400019BD2B2C9B2C3
S214400AF0C0B2D04727E0A9EB0600019B3A460099D2
S214400B00C0B2D047721CA9EB0400019BD2B2009938
S214400B10C0B2D0471AE0002D2BDBA41B0A3505EBEC
S214400B20840425B2013EF6B208F101087B1CDBB214
S214400B30BE42B5D31F465FFA88F4029B002BB2D163
S214400B40039B002BC3D11BF0300FD4D11BF0C00F3A
S214400B50E1D009EB0600019B3A460099C0B2D04767
S214400B60721C09EB0400019BD2B20099C0B2D04778
S214400B70D1E7063505EB84052DB2D5E7250C4000B8
S214400B80C909400070B504460D4616461BB90D4BC4
S214400B909847B04215D03246294620460A4B9847D9
S214400BA004F00F0040F0B000084CA047C5F3021018
S214400BB040F01000A04705F00F00A0473046044B19
S214400BC0984770BDB9094000A9094000CD0C4000C7
S214400BD0ED0E40002DE9F0410D480E4B98470E4B68
S214400BE0984740200D4B984700254FF001082F4668
S214400BF00B4E002443463A46E1B22846B0470134FD
S214400C00802CF7D10135EDB2042DF2D1BDE8F0814C
S214400C10E40940209D0940000D0D4000CD0C4000E9
S214400C20850B4000C3092AD11F2928D82DE9F04159
S214400C3014460546CE08A1EBC601012202FA01F78A
S214400C405FFA87F8014630460D4B98470246012C1E
S214400C5009D064B1022C0ED0002329463046094CF8
S214400C60A047BDE8F08148EA0002D2B2F4E720EAA5
S214400C700702D2B2F0E788EA0002D2B2ECE7704749
S214400C80B9094000850B4000F8B505460E461746A4
S214400C901C460C4B98470246012C08D054B1022CF7
S214400CA00CD0002331462846074CA047F8BD3A43AF
S214400CB0D2B2F6E720EA0702D2B2F2E77A40D2B2E0
S214400CC0EFE700BFB9094000850B400038B5054640
S214400CD00822094B5A63094C01212046084B984785
S214400CE001231A4629462046064CA0474FF4FD707D
S214400CF0054B984738BD00BF00100E4000800040AE
S214400D00D5074000EB074000010040202DE9F8439E
S214400D10664D4FF400362E61C5F8A060644B082738
S214400D201F61C3F8A0706E66C5F890606E656E620F
S214400D30C5F880602A6F22F400322A676A6F22F470
S214400D4000326A675F66C3F890705F655F62C3F89B
S214400D5080701A6F22F008021A675A6F22F0080253
S214400D605A671F602E601F632E63DFF87C81002366
S214400D704FF480024FF0805140464E4CA04700232F
S214400D804FF400124FF080514046A04700234FF0EA
S214400D9000724FF080514046A04700234FF4800237
S214400DA04FF080514046A04700234FF400124FF0CA
S214400DB080514046A04700234FF000724FF08051CC
S214400DC04046A0473C4C4FF00209C4F800904FF014
S214400DD08008C4F80080636843F0010363603A46C5
S214400DE001212046354B9847002201212046344BAE
S214400DF09847002201212046324B9847636823F0EB
S214400E00020363600022012120462F4B9847636807
S214400E1023F080036360636843F0100363602B49EC
S214400E202B482C4B9847C2B2012120462A4B984764
S214400E3020462A4B9847012323606E6340F6B8301D
S214400E40274CA0472E6340F6B830A0472E63A82014
S214400E50244CA0471F20A047D320A0470020A047EF
S214400E604020A047A120A047C820A047DA20A0479E
S214400E704846A0478120A0478F20A047A420A047EF
S214400E80A620A047D520A0474046A0478D20A04793
S214400E901420A047DB20A0474020A047D920A047E9
S214400EA0F120A047AF20A047BDE8F88300120E40CF
S214400EB000100E40D5124000008000405B08400005
S214400EC01F0840003D084000A108400080D1F008BF
S214400ED080841E00B5084000CB084000A9074000AB
S214400EE001004020CD0C400000140E4038B50546A9
S214400EF00822094B1A63094C01212046084B9847A3
S214400F0001231A4629462046064CA0474FF4FD705A
S214400F10054B984738BD00BF00100E40008000408B
S214400F20D5074000EB0740000100402010B51048B0
S214400F30104B98473E2100200F4B98470F4CA04738
S214400F400028FCD00E4B98470E4A0F4B9A620F4C27
S214400F50A0470028FCD002200D4B984700200D4BA0
S214400F6098470D4B98470248024B984710BD00BF24
S214400F7000A3E1115519400071154000C515400009
S214400F80D5154000013F182000060E40E5154000EC
S214400F90D51440000D154000491840002DE9F04199
S214400FA080B90C469046002A0FDD8F18084E094D32
S214400FB0306821462B6898470134BC42F8D14046F9
S214400FC0BDE8F0814FF0FF38F9E78046F7E700BF0D
S214400FD0680E4020600E40200138022815D82DE9C2
S214400FE0F0410E4614469AB10D46DFF838800C4F55
S214400FF0D8F8000015F8011B3B68984700280ADB24
S214401000A81B013CF4D1BDE8F0814FF0FF3070479B
S2144010101046BDE8F0814FF0FF30BDE8F08100BFDC
S214401020640E4020680E4020F8B54FF400425C4BFA
S2144010305A60BFF34F8FBFF36F8F5A4B0022C3F8EF
S21440104050225A6942F400325A61BFF34F8FBFF3C1
S2144010506F8FD3F88070C7F34E3607F00700043022
S214401060C7F3C907B7FA87FE0EF01F0EBFF34F8FC0
S2144010704FF0FF3404FA00FC06FA00F004FA0EF4CF
S21440108007FA0EFE1D463A46734640EA0301C5F887
S2144010906012013A2344B2F1FF3FF6D1013E60446C
S2144010A0B6F1FF3FEFD1BFF34F8F3E4B5A6942F444
S2144010B080325A61BFF34F8FBFF36F8F3A4A3B4936
S2144010C05160A1F580715160BFF34F8FBFF36F8FB2
S2144010D0D3F8902222F00102C3F89022D3F894224B
S2144010E022F00102C3F89422BFF34F8FBFF36F8FF5
S2144010F00A202F4CA0470B20A0470C20A0471020CA
S214401100A0471120A0472B4B4FF480721A61C3F8BA
S214401110A0201A63A3F580634FF400625A61C3F8B7
S214401120A0205A66C3F890205A651A62C3F88420F5
S214401130196F21F400611967596F21F400615967EE
S214401140C3F8C020C3F8D420C3F8B0204FF4001230
S2144011501A66C3F890205A655A62C3F88020196F01
S21440116021F400111967596F21F4001159675A602C
S214401170114AD2F8143143F01003C2F814310F4B21
S21440118010221A66C3F890205A655A62C3F8802027
S214401190196F11431967596F114359675A60F8BD63
S2144011A050180E4000ED00E0000C0E400C08005AAF
S2144011B0F515400000120E400080084000100E401A
S2144011C0016370474163704721F00061B1F1405FB1
S2144011D005D1836B134214BF012000207047C36BB8
S2144011E0F8E74264B1F1C05F3AD013D8B1F1006F6E
S2144011F025D0B1F1805F0AD1036F13430367436F75
S214401200416F0B4023EA0203436742607047002960
S214401210FBD17047B1F1205F21D009D8B1F1005F12
S214401220F3D1036F13430367436F13434367ECE7FE
S214401230B1F1405F13D0B1F1605F10D0E5E710B474
S214401240016F046FD34321401C4619400167436F2A
S214401250416F0B402340436742605DF8044B704744
S214401260036F016F0B4023EA02030367436F134388
S2144012704367CAE7416412F0010F0DD1016612F0D0
S2144012800A0F0BD0016212F0020F09D112F0080FBC
S21440129008D0C0F8841005E04166F0E74162F2E706
S2144012A0C0F8801041610160704710B4019C4164F1
S2144012B04CB901664BB101654AB9416301610160B1
S2144012C05DF8044B70474166F4E74165F4E7016317
S2144012D0F4E7000070B582B0054616461C46B1F1EC
S2144012E0005F14D00AD9B1F1405F24D0B1F1605FFD
S2144012F021D0B1F1205F17D000201AE0B1F1805F15
S21440130005D0B1F1C05F02D0B1F1006FF4D13246E2
S2144013102846114B984714F0010F02D12E66012043
S21440132007E06E66012004E01A4631460B4B9847AC
S214401330012002B070BD04F001030093C4F38003A3
S214401340B1F1605F14BF0022012231462846044CAA
S214401350A0470120EDE700BFE311400075124000B2
S214401360AB124000836B0B4214BF01200020704735
S21440137012F0100F12D0C0F8B01012F0200F07D0A5
S214401380C0F8D41012F0400F05D0C0F8C010704717
S214401390C0F8D010F6E7C0F8C4107047C0F8B410D4
S2144013A0704701647047C06C7047806C704700009F
S2144013B02DE9F041044688460E4B984705462046A0
S2144013C00D4B9847054013D00C4C04F1600603E0E3
S2144013D0B4420DD010345DB120684045F8D1616804
S2144013E02942F5D0E3689847636825EA0305EFE7A6
S2144013F0BDE8F081A7134000AB134000E40B40204B
S214401400F8B5184C2668062E2AD84FF0000C6446CD
S214401410154F04E00134E4B2A446A64209D3A646DA
S21440142025017D598D42F5D107EB04156D6895422F
S214401430F0D10D4D4FEA0E1E05EB0E0445F80E108A
S2144014406260A3600699E1600136664505D01146A4
S2144014501A46064B98470020F8BD02490E60F6E74C
S2144014600120F8BD540C4020E40B4020711340008E
S21440147008B50A210148024B984708BD000E0E40A9
S214401480B113400008B50B210148024B984708BDF0
S21440149000100E40B113400008B50C210148024B25
S2144014A0984708BD00120E40B113400008B5102101
S2144014B00148024B984708BD00140E40B113400047
S2144014C008B511210148024B984708BD00160E404A
S2144014D0B1134000032811D0042812D002280CBFB4
S2144014E04FF480710021084A136B23F440730B437A
S2144014F01363936E13F0080FFBD070474FF44071A0
S214401500F1E74FF40071EEE700060E40174A136B02
S21440151023F0700318431063936E13F0080F0AD13C
S2144015204FF4805311498A6E12F0080F03D1013BE5
S214401530F9D1012070470D4A136B23F0030343F0A3
S21440154002031363936E13F0080F0AD14FF48053CF
S21440155006498A6E12F0080F05D1013BF9D10120E9
S2144015607047002070470020704700BF00060E40BE
S214401570A0B90E48036A090289B20D4A1A400D4BBB
S2144015801343194301620246936E13F0010FFBD0DA
S214401590064A116A084B0B431362704703490B6AAD
S2144015A0064A1A40064B13430B62704700060E402D
S2144015B0FCFFC8FF0100370000003701FCFFC8FEF3
S2144015C002003701024B986E00F48030704700BF2F
S2144015D000060E404FF00052014B9A62704700BF23
S2144015E000060E40024B986E00F00200704700BFA7
S2144015F000060E403F281ED81F280CD8114B9A696B
S21440160001238340934318D0012303FA00F00D4B87
S21440161018610020704720380A4BD3F80821012370
S214401620834093430BD0012303FA00F0054BC3F8E5
S21440163000010020704701207047002070470020BE
S214401640704700BF00060E40436913F0020F02D0F9
S214401650C1610020704701207047436913F0010FB5
S21440166003D083690B70002070470120704710B488
S2144016700B01934214D9C9004B0803EBC202B2FBDC
S214401680F1F2D3085C1E4FF6FE718C4201D9012060
S21440169017E0416841F4002141600CE0012010E071
S2144016A0590801EBC202B2FBF3F2D3085C1E4FF6B8
S2144016B0FE718C42F2D8120402F4E0221A4302620F
S2144016C000205DF8044B7047084BC0F8E430002318
S2144016D043604362836288230360242303604FF49D
S2144016E0807303604FF400230360704700415355F6
S2144016F070B505460C4616460F4B984700220F4BD2
S2144017001A60A4B13246216828460D4B98470246D7
S21440171078B96368A1680B4321690B43E1680B43C2
S21440172006490B6069680B436B60104670BD01222A
S214401730FBE70122F9E700BFC9164000580C4020DD
S2144017406F164000402303607047102303607047C5
S214401750436913F0020F04D0C1F30801C1610020B1
S214401760704701207047436913F0010F05D0836925
S214401770C3F308030B600020704701207047FEE764
S21440178000B583B0254B264A9A4210D0254B234AB3
S2144017909A420CD2013B9B1A23F0030304331344B2
S2144017A01F4951F8040B42F8040B9A42F9D11E4BDC
S2144017B01E4A9A420AD2013B9B1A23F00303043383
S2144017C01344002142F8041B9342FBD1184A194B9C
S2144017D023F07F039360EFF31083B3FA83F35B0940
S2144017E0019372B6BFF35F8F0022134B1A700199B4
S2144017F0124A136843F470031360BFF34F8FBFF36E
S2144018006F8F29B101220C4B1A70BFF35F8F62B6FF
S2144018100B4B98470B4B9847FEE700BF0000402015
S214401820807B4000C0094020EC0E4020C00940208C
S21440183000ED00E0000040000A00402088ED00E097
S21440184035484000854540003B4B1B6B03F0030387
S214401850012B1DD083B1022B36D0374B1B6B03F0C8
S2144018607003702B5FD0344B1A6B3449C2F30212AC
S2144018700B68D3400B607047314B5B6913F0800FA9
S21440188014BF4FF400424FF4FA422C4B1A60E4E780
S214401890294B1B6A13F0807F03D02A4A274B1A60D5
S2144018A0DBE7294A254B1A60234B1B6A03F070037B
S2144018B0102B05D0202BD0D1224A204B1A60CCE7E3
S2144018C0224A1E4B1A60C8E71B4B1B6A13F0807FE8
S2144018D016D01C4A194B1A60174B1B6B03F00303B8
S2144018E0022BBAD1144A916A926A1448C1F30A414B
S2144018F0036801FB0333D2B2B3FBF2F30360ACE7F9
S214401900114A0E4B1A600C4B1B6A03F07003102BE7
S21440191005D0202BE0D10B4A084B1A60DCE70B4A77
S214401920064B1A60D8E7054A13680949A1FB03131A
S2144019305B081360704700BF00060E400C00402056
S21440194010180E40001BB70000093D0000127A0038
S214401950ABAAAAAA164B984213D9164B984215D949
S214401960154B984216D9154B984217D9144B9842A6
S21440197018D9144B984294BF134A144A144B1A6011
S21440198070474FF08062124B1A607047114A104BF6
S2144019901A607047104A0E4B1A6070470F4A0C4B3D
S2144019A01A6070474FF00422094B1A60704700BF18
S2144019B0BFF35E017FE7BD023FDB1C04FFCE7B0525
S2144019C0BFC2DA067FB639080005000400060004E8
S2144019D0000C0E4000010004000200040003000456
S2144019E00A4B1B6853B1094B1B681A1808499142A9
S2144019F008DB1046054A106018467047054A034BF8
S214401A001A60F0E74FF0FF30704700BF5C0C402094
S214401A10FCFF4520F03040204FF0FF3070474FF439
S214401A2000534B60002070470120704700207047ED
S214401A3000F1080343604FF0FF328260C3600361E9
S214401A4000230360704700230361704743684B6080
S214401A509A688A609A6851609960086103680133A1
S214401A600360704730B40D68B5F1FF3F02D000F117
S214401A70080202E0026904E01A4653681C68A54260
S214401A80FAD253684B6099608A6051600861036877
S214401A900133036030BC70470369426881689160D7
S214401AA08268416851605A68904205D000220261BF
S214401AB0186801381860704782685A60F6E7000078
S214401AC00D4B1B68B3F1FF3F0AD04FF0800372B650
S214401AD083F31188BFF36F8FBFF34F8F62B6FEE775
S214401AE04FF0800372B683F31188BFF36F8FBFF356
S214401AF04F8F62B6FEE700BF1000402006480068E1
S214401B00006880F3088862B661B6BFF34F8FBFF3B4
S214401B106F8F00DF00BF000008ED00E0DFF80C002C
S214401B20016841F4700101607047000088ED00E0F4
S214401B304FF0807340F8043C40F8081C054B40F8D2
S214401B400C3C40F8202C6FF0020340F8243C44380C
S214401B50704700BFC11A4000064B19680868B0E8D5
S214401B60F04F80F30988BFF36F8F4FF0000080F38B
S214401B7011887047680C4020704700BF4FF08003C4
S214401B8072B683F31188BFF36F8FBFF34F8F62B681
S214401B900B4A136801331360012B0FD1094B1B68A6
S214401BA013F0FF0F0AD04FF0800372B683F311880C
S214401BB0BFF36F8FBFF34F8F62B6FEE7704700BF2D
S214401BC01000402004ED00E00A4B1B6853B94FF06C
S214401BD0800372B683F31188BFF36F8FBFF34F8FC6
S214401BE062B6FEE7013B034A13600BB983F31188E4
S214401BF0704700BF10004020EFF30980BFF36F8F9F
S214401C00154B1A681EF0100F08BF20ED108A20E909
S214401C10F04F10604DF8043D4FF0800072B680F3F0
S214401C201188BFF34F8FBFF36F8F62B601F02AF96A
S214401C304FF0000080F3118808BC19680868B0E8C7
S214401C40F04F1EF0100F08BFB0EC108A80F30988E2
S214401C50BFF36F8F704700BF680C4020704700BFCF
S214401C6008B5EFF311834FF0800272B682F3118805
S214401C70BFF36F8FBFF34F8F62B6054B984718B1CF
S214401C804FF08052034B1A60002383F3118808BD3F
S214401C90F12A400004ED00E0034A044B1A60072294
S214401CA0043B1A60704700BFBF27090014E000E0FD
S214401CB000B583B0254B1A78D2B20192FF221A7033
S214401CC01B78DBB28DF803309DF8033003F08003B9
S214401CD01F4A137007221F4B1A609DF8033013F0FB
S214401CE0800F10D0062200E00A469DF803305B00C5
S214401CF0DBB28DF803309DF80330511E13F0800F91
S214401D00F2D1144B1A60134A13681B0203F4E063C3
S214401D101360019BDBB20D4A13700F4B1A6842F4F6
S214401D2060021A601A6842F060421A600B4B98478D
S214401D3000220B4B1A600B4B98470B4A136843F034
S214401D4040431360094B9847094B984700E400E02E
S214401D50600C4020640C402020ED00E0991C4000C0
S214401D60100040201D1B400034EF00E0FD1A4000EC
S214401D70C11A4000EFF305830F2B11D9124A9B5C22
S214401D80DBB2124A12789A420AD94FF0800372B6F2
S214401D9083F31188BFF36F8FBFF34F8F62B6FEE7B2
S214401DA00B4B1B6803F4E0630A4A126893420AD955
S214401DB04FF0800372B683F31188BFF36F8FBFF383
S214401DC04F8F62B6FEE77047F0E300E0600C4020BD
S214401DD00CED00E0640C402010B50446064B9847D6
S214401DE02046064B98470446054B98470CB120467C
S214401DF010BD044B9847FAE7D52A4000AD4840004E
S214401E003D2C4000B33E400048B110B50446044B5C
S214401E1098472046034B9847034B984710BD70475A
S214401E20D52A4000BD4840003D2C400038B5044609
S214401E301546026C5AB90368002B2ED140681B4BDE
S214401E40984700236360A36B0133A36338BD6DB925
S214401E508068174B9847A368226C1344A360626857
S214401E6093421CD32368A3600020ECE7C068104B65
S214401E709847236C5B42E2681A44E26021688A42D3
S214401E8002D262681344E360022D0AD1A36B53B1B9
S214401E90A36B013BA3630020D5E70020D3E70020D7
S214401EA0D1E70020CFE70020CDE700BF85324000D5
S214401EB02D4E400030B583B00190446D74B1A26B96
S214401EC0E36B9A4215D34FF0800372B683F31188C2
S214401ED0BFF36F8FBFF34F8F62B6FEE74FF08003BE
S214401EE072B683F31188BFF36F8FBFF34F8F62B61E
S214401EF0FEE7A26B934203D80025284603B030BDC8
S214401F000A4601A920460B4B98470546A36CB3F1F9
S214401F10FF3F0AD1636A002BEFD004F12400064B42
S214401F209847002818BF0125E7E7A36C0133A36450
S214401F30E3E700BF2D1E400059304000026C72B1EE
S214401F4010B50346C4681444C4604068844201D354
S214401F501868D8600846D968014B984710BD704746
S214401F602D4E4000F8B50446224B9847A36C002BF4
S214401F701BDD214D214F224E0BE0636AABB104F1CD
S214401F802400B04778B9A36C013BA364A36C002B34
S214401F900BDD636D002BF0D000212046A8470128BA
S214401FA0F1D1B847EFE7B847EDE74FF0FF33A3640A
S214401FB0144B98470F4B9847636C002B14DD2369EE
S214401FC093B104F110060E4D0C4F07E0636C013BD5
S214401FD06364636C002B07DD23692BB13046A8474A
S214401FE00028F3D0B847F1E74FF0FF336364054B62
S214401FF09847F8BD7D1B4000B51E4000B5314000F7
S21440200059304000C91B400038B508B304460D4659
S2144020101D4B98472268216CE36B03FB01F3D018F5
S21440202060600020A063A2605B1A1344E3604FF038
S214402030FF336364A364FDB923692BB104F1100038
S214402040124B984701280ED0114B9847012038BDB7
S2144020504FF0800372B683F31188BFF36F8FBFF3E0
S2144020604F8F62B6FEE74FF080520A4B1A60BFF3BE
S2144020704F8FBFF36F8FE7E704F11000064DA84778
S21440208004F12400A847DFE77D1B4000593040009C
S214402090C91B400004ED00E0311A4000F8B550B9C5
S2144020A04FF0800372B683F31188BFF36F8FBFF390
S2144020B04F8F62B6FEE7064617460D4689B101FBCE
S2144020C000F05930124B98470446E8B94FF0800369
S2144020D072B683F31188BFF36F8FBFF34F8F62B62C
S2144020E0FEE758200A4B984704460028EED020606A
S2144020F0E663256401212046064B984784F85070D5
S214402100002363652046F8BD00F158030360EFE7FF
S214402110D91D4000092040002DE9F04F85B00192BE
S214402120B8B1044601B3022B2CD01D468846664BF8
S2144021309847002834D1019B002B38D04FF08003BD
S21440214072B683F31188BFF36F8FBFF34F8F62B6BB
S214402150FEE74FF0800372B683F31188BFF36F8FAC
S214402160BFF34F8F62B6FEE7026C002ADBD04FF01B
S214402170800372B683F31188BFF36F8FBFF34F8F20
S21440218062B6FEE7E26B012ACFD04FF0800372B60C
S21440219083F31188BFF36F8FBFF34F8F62B6FEE7AE
S2144021A000274A4EDFF850A1DFF82C9142E0002786
S2144021B0F7E72A4641462046454B9847636D9BB114
S2144021C029462046434B9847012807D14FF0805276
S2144021D0414B1A60BFF34F8FBFF36F8F3F4B98470B
S2144021E0012005B0BDE8F08F636A73B104F12400A6
S2144021F03B4B98470128F1D14FF08052364B1A603E
S214402200BFF34F8FBFF36F8FE8E70028E6D04FF05D
S2144022108052314B1A60BFF34F8FBFF36F8FDDE7AD
S2144022202E4B98470020DCE720462E4B98472E4BF7
S21440223098470127B047A26BE36B9A42B9D3022D69
S214402240B7D0019B002BEBD00FB902A8D047234B49
S2144022509847264B9847B047636CB3F1FF3F01D190
S21440226000236364A36CB3F1FF3F01D10023A36452
S2144022701A4B984701A902A81D4B9847E0B9B047AA
S214402280D4F838B0E76B154B9847BB45CCD101998D
S21440229004F11000174B98472046124B9847124BB4
S2144022A098470028C5D14FF08053C9F80030BFF397
S2144022B04F8FBFF36F8FBCE720460A4B98470A4BB9
S2144022C0984700208DE700BFC13140007D1B40008D
S2144022D02D1E4000B51E400004ED00E0C91B400026
S2144022E059304000651F40003D2C4000D52A400034
S2144022F021314000552F4000F130400070B5064671
S2144023005820114B98470446D8B1002545600560D3
S2144023108560C56085630123C36305644FF0FF3362
S2144023204364836480F8506045651030074EB0477C
S21440233004F12400B0472B462A4629462046044D41
S214402340A847204670BD00BFD91D4000311A400046
S21440235019214000002836D02DE9F04104460029D6
S2144023603CD0022B48D01E4615468846354B9847EB
S214402370EFF311874FF0800372B683F31188BFF3F3
S2144023806F8FBFF34F8F62B6A26BE36B9A4201D357
S214402390022E4FD13246414620462B4B9847A36CDF
S2144023A0B3F1FF3F41D1636D002B33D03146204619
S2144023B0264B9847002D3FD001283DD1286087F313
S2144023C01188BDE8F0814FF0800372B683F3118820
S2144023D0BFF36F8FBFF34F8F62B6FEE7006C0028E7
S2144023E0BFD04FF0800372B683F31188BFF36F8F70
S2144023F0BFF34F8F62B6FEE7E06B0128B3D04FF0D5
S214402400800372B683F31188BFF36F8FBFF34F8F8D
S21440241062B6FEE7636A8BB104F124000C4B984722
S21440242075B168B101202860C9E7A36C0133A36485
S2144024300120C4E70020C2E70120C0E70120BEE734
S2144024400120BCE7751D40002D1E4000B51E400013
S2144024505930400070B170B50446036CABB14FF0D4
S214402460800372B683F31188BFF36F8FBFF34F8F2D
S21440247062B6FEE74FF0800372B683F31188BFF36F
S2144024806F8FBFF34F8F62B6FEE7036833B30D46D8
S214402490254B9847EFF311864FF0800372B683F3CF
S2144024A01188BFF36F8FBFF34F8F62B6A26BE36B9B
S2144024B09A4231D2A36B0133A363A36CB3F1FF3FBF
S2144024C025D1636DC3B100212046184B98472DB3E4
S2144024D0012823D1286086F3118870BD4368002BFD
S2144024E0D5D04FF0800372B683F31188BFF36F8F59
S2144024F0BFF34F8F62B6FEE7636A8BB104F12400E8
S2144025000B4B984775B168B101202860E3E7A36C90
S2144025100133A3640120DEE70020DCE70120DAE790
S2144025200120D8E70120D6E7751D4000B51E4000C3
S214402530593040002DE9F04784B0019298B10446E6
S214402540E1B198460F46614B984728BB019B53B371
S2144025504FF0800372B683F31188BFF36F8FBFF3DB
S2144025604F8F62B6FEE74FF0800372B683F3118852
S214402570BFF36F8FBFF34F8F62B6FEE7026C002A41
S214402580DFD04FF0800372B683F31188BFF36F8FAE
S214402590BFF34F8F62B6FEE700264D4DDFF860A1D1
S2144025A0DFF83C914BE00026F7E7E56839462046E1
S2144025B0484B9847B8F1000F1DD1A36B013BA3636E
S2144025C0236813B9444B9847606023696BB104F1A4
S2144025D01000424B9847012807D14FF08052404B9D
S2144025E01A60BFF34F8FBFF36F8F3E4B9847012063
S2144025F004B0BDE8F087E560636A002BF5D004F1CF
S2144026002400364B98470028EFD04FF08052344B8A
S2144026101A60BFF34F8FBFF36F8FE6E7314B984793
S2144026200020E5E7A84760682F4B98472D4B984712
S21440263030E020462D4B98472D4B98470126A8471B
S214402640A36B002BB1D1019B002BE7D00EB902A89B
S214402650D047244B9847274B9847A847636CB3F11D
S214402660FF3F01D100236364A36CB3F1FF3F01D168
S2144026700023A3641B4B984701A902A81E4B98470A
S214402680E8B9A847A66B174B9847002ED1D12368C8
S214402690002BC7D0019904F12400184B98472046D8
S2144026A0124B9847124B98470028C7D14FF080539B
S2144026B0C9F80030BFF34F8FBFF36F8FBEE7204699
S2144026C00A4B98470A4B9847002091E7C131400093
S2144026D07D1B40003D1F40004133400059304000C4
S2144026E004ED00E0C91B4000E1314000651F40009A
S2144026F03D2C4000D52A400021314000552F400057
S214402700F130400010B40B4B1B6853B10123094C09
S21440271054F8332032B10133082BF9D15DF8044B1D
S21440272070470023034A42F8331002EBC303586055
S214402730F4E700BF6C0E402070B504460D461646C2
S2144027400F4B9847636CB3F1FF3F0BD0A36CB3F1CC
S214402750FF3F0AD00B4B9847A36B4BB120460A4B22
S214402760984770BD00236364F0E70023A364F1E755
S2144027703246294604F12400044B9847EEE700BF52
S2144027807D1B4000C91B4000651F4000D92F4000FC
S214402790084B1B681B683BB1064B1B68DB68DB6855
S2144027A05A68054B1A6070474FF0FF32024B1A606A
S2144027B0704700BF6C0C4020180D402010B50F4BE2
S2144027C01B6858600E4B1B6898420ED304460D4B50
S2144027D018680A4B196804310B4B98470B4B1B681B
S2144027E09C4201D2094B1C6010BD094B1868034B34
S2144027F019680431044B984710BD00BF680C402050
S214402800600D40206C0C4020651A4000180D40209A
S214402810700C40202DE9F04F83B00C9DDDF834A0BD
S2144028200E9E60B1042D15D94FF0800372B683F327
S2144028301188BFF36F8FBFF34F8F62B6FEE74FF03E
S214402840800372B683F31188BFF36F8FBFF34F8F49
S21440285062B6FEE70190984691460F4636B990001C
S214402860624B98470646002800F09E8058205F4BF3
S21440287098470446002800F0948006634FEA890291
S214402880A52130465A4B98476FF040464E44236B3E
S21440289003EB860323F007063B7884F834303B7816
S2144028A0002B40F08480002784F83D70E562A564E4
S2144028B0E76404F104094846DFF884B1D84704F1D8
S2144028C01800D8472461C5F10503A36164622765F3
S2144028D084F85470424601993046464B98472060EB
S2144028E0BAF1000F01D0CAF80040434B9847434A1C
S2144028F0136801331360424B1B68002B66D1404B74
S2144029001C601368012B21D13E4F38463E4EB047DF
S21440291007F11400B04707F12800B04707F13C0024
S214402920B04707F15000B047DFF818814046B0473F
S214402930364F3846B0473648B0473648B0473648F0
S214402940B047364BC3F80080354B1F60354A136896
S214402950013313602364E06A334A116801238340DD
S2144029600B43136000EB80004946264B03EB800088
S2144029702E4B98472E4B98472E4B1B68002B31D03A
S2144029801F4B1B68DB6A9D422ED94FF080522A4B64
S2144029901A60BFF34F8FBFF36F8F012003B0BDE8BF
S2144029A0F08F3046254B98474FF0FF30F6E73B46D2
S2144029B004F134020937597802F8011F13F8011F51
S2144029C000293FF470AFBB42F5D16CE7194B1B684A
S2144029D0002BBBD10A4B1B68DB6A9D42B6D3084B23
S2144029E01C60B3E70120D9E70120D7E7D91D400096
S2144029F0614F4000311B40007D1B4000D80C4020FA
S214402A00680C4020740C4020311A4000040D4020D1
S214402A10200D40204C0D4020380D40206C0C4020AE
S214402A20700C4020E40C4020EC0C40204D1A400036
S214402A30C91B4000340D402004ED00E0091E400054
S214402A40471A4000F00C402010B584B00023039392
S214402A50029301930093822216491748174CA047C9
S214402A6001280BD020BB4FF0800372B683F3118849
S214402A70BFF36F8FBFF34F8F62B6FEE7104B98479A
S214402A800128EFD14FF0800372B683F31188BFF36D
S214402A906F8FBFF34F8F62B64FF0FF32094B1A600D
S214402AA00122094B1A600022084B1A60084B9847CF
S214402AB004B010BDD8774000ED2D400015284000EA
S214402AC02D344000180D4020340D4020600D40202D
S214402AD0B11C4000024A136801331360704700BFC0
S214402AE0E00C4020014B1868704700BF600D402046
S214402AF02DE9F047424B1B68002B78D1414B1A68B2
S214402B0001321A601E68D6B93F4B1B681B6853B12A
S214402B104FF0800372B683F31188BFF36F8FBFF315
S214402B204F8F62B6FEE7384A1168384B1868106017
S214402B301960374A136801331360364B9847364B53
S214402B401B689E4218D20024344B1B68DB6A03EB9A
S214402B508303334A52F82330022B28BF0124314BDB
S214402B601B680BB9304B9847304B1B68002B0CBF8B
S214402B7020460120BDE8F0870024DFF88C90DFF87F
S214402B80B8802B4F1FE04FF0FF32234B1A60DBE735
S214402B90214A1360D8E705F11800C047E86A3A684A
S214402BA00123834013433B6000EB800051461C4B9F
S214402BB003EB80001F4B9847184B1B68EA6ADB6A9A
S214402BC09A4228BF0124D9F800301B68002BDAD07F
S214402BD0D9F80030DB68DD686B689E42D8D305F1D3
S214402BE0040A5046C047AB6A002BD4D1D6E70D4AFC
S214402BF01368013313600C4B98470024B4E700BFBA
S214402C00E00C4020600D40206C0C4020700C4020B2
S214402C101C0D402091274000180D4020680C402095
S214402C20740C4020DC0C4020B13E4000640D402037
S214402C30EC0C40204D1A4000991A40002DE9F8430C
S214402C40384B1B6853B94FF0800372B683F3118834
S214402C50BFF36F8FBFF34F8F62B6FEE7324B984796
S214402C60304B1A68013A1A601B68002B55D12F4B1F
S214402C701B68002B32D100242D4B98472046BDE8D8
S214402C80F883FB68DC6804F11800B04704F10408D8
S214402C904046B047E06A2A680123834013432B60CE
S214402CA000EB8000414609EB8000224B9847224BC0
S214402CB01B68E26ADB6A9A420CD23B68002BE0D182
S214402CC01E4B1B68DBB11D4B1B68C3B11C4E1D4D14
S214402CD01A4C0EE001221B4B1A60EEE71A4F1B4EB1
S214402CE01B4DDFF87490E8E72368013B23602368B8
S214402CF02BB1B0470028F7D001232B60F4E7114BE7
S214402D001B68012B0BD14FF08052124B1A60BFF359
S214402D104F8FBFF36F8F0124AEE70024ACE700244B
S214402D20AAE700BFE00C40207D1B4000D80C4020A6
S214402D30C91B40004D1A4000680C4020DC0C402067
S214402D40F12A4000640D4020200D4020991A400092
S214402D50EC0C402004ED00E0740C402010B5002838
S214402D6029D00446184B1B6853B14FF0800372B607
S214402D7083F31188BFF36F8FBFF34F8F62B6FEE7C2
S214402D80124B9847124B1B681C44124B1868043071
S214402D90114B984748B90F4B1A6810490B68D06AD0
S214402DA00122824023EA02030B6020460C4B9847E0
S214402DB00C4B984738B94FF080520B4B1A60BFF314
S214402DC04F8FBFF36F8F10BDE00C4020D52A4000D8
S214402DD0600D4020680C4020991A4000EC0C4020C2
S214402DE0BD2740003D2C400004ED00E080B5DFF8F4
S214402DF08880194EDFF884902AE0184B1B68012B18
S214402E001ED82B68002BF8D0C0473468B847002C33
S214402E10F7D0134B9847F368DC68201D114B984752
S214402E20114A1368013B13602B68013B2B600F4B24
S214402E309847206BDFF848A0D0472046D047E0E7C9
S214402E404FF08053C9F80030BFF34F8FBFF36F8FFA
S214402E50074D084FD5E700BF4C0D4020740C40206E
S214402E607D1B4000991A4000D80C4020C91B4000EA
S214402E70E80C40203D2C4000D52A400004ED00E000
S214402E80091E40002D4B1B68002B2CD110B500228C
S214402E902B4B1A602B4B1B681B6B1A68B2F1A53F75
S214402EA003D15A68B2F1A53F21D0264B186819685D
S214402EB03431254B9847254B1B68B3FA83F3DBB276
S214402EC0C3F11F0303EB8301214A52F82120BAB90C
S214402ED04FF0800372B683F31188BFF36F8FBFF352
S214402EE04F8F62B6FEE70122154B1A6070479A680C
S214402EF0B2F1A53FD9D1DB68B3F1A53FD5D1DAE72A
S214402F00134A9900C81802EB80004468646844601D
S214402F10194402460832944209D003EB83030C4A14
S214402F2002EB83035B68DA68064B1A6010BD606884
S214402F30074A02EB81025060EFE700BFE00C4020FA
S214402F40640D4020680C4020993E4000EC0C402028
S214402F50740C402038B5E0B10C46174D296818313E
S214402F60164B984728680430154B984740B92A684E
S214402F7014490B68D06A0122824023EA02030B60A0
S214402F80B4F1FF3F10D0104B186820440F4B9847C1
S214402F9038BD4FF0800372B683F31188BFF36F8F4E
S214402FA0BFF34F8F62B6FEE7034B196804310848FB
S214402FB0084B984738BD00BF680C4020651A400053
S214402FC0991A4000EC0C4020600D4020BD27400080
S214402FD0380D40204D1A4000E8B170B515460C46F5
S214402FE0164E31681831164B984730680430154BEA
S214402FF0984740B9326814490B68D06A012282402B
S21440300023EA02030B60012D10D0104B18682044B1
S2144030100F4B984770BD4FF0800372B683F311880C
S214403020BFF36F8FBFF34F8F62B6FEE7034B19684F
S21440303004310848024B984770BD00BF680C4020DA
S2144030404D1A4000991A4000EC0C4020600D40207C
S214403050BD274000380D402038B5C368DC6824B32F
S21440306004F1180528461A4B98471A4B1B683BBB79
S214403070251D2846164B9847E06A174A11680123D3
S21440308083400B43136000EB80002946134B03EB51
S2144030908000134B9847134B1B68E26ADB6A9A42E0
S2144030A013D90120104B186038BD4FF0800372B61C
S2144030B083F31188BFF36F8FBFF34F8F62B6FEE77F
S2144030C029460A48064B9847E5E7002038BD00BF2A
S2144030D0991A4000E00C4020EC0C4020740C402034
S2144030E04D1A4000680C4020640D4020200D4020C2
S2144030F030B1094A12680260084A12684260704756
S2144031004FF0800372B683F31188BFF36F8FBFF31F
S2144031104F8F62B6FEE700BF1C0D4020600D40207A
S21440312038B5C0B1044609B30D461D4B98471D4BF4
S2144031301A682B68B3F1FF3F2ED01B4909682068F8
S214403140884202D061688A4228D26168501A834217
S21440315017D801241CE04FF0800372B683F3118821
S214403160BFF36F8FBFF34F8F62B6FEE74FF080031B
S21440317072B683F31188BFF36F8FBFF34F8F62B67B
S214403180FEE79B1A0B442B602046084B98470024CA
S214403190074B9847204638BD0024F9E70124F7E757
S2144031A07D1B4000600D40201C0D4020F13040004B
S2144031B0C91B40000122014B1A607047640D402035
S2144031C0054B1B6833B1054B1B68002B0CBF022018
S2144031D00020704701207047340D4020E00C40200E
S2144031E0002844D038B50446C26A21490968C96AED
S2144031F08A4214D28169002905DB1D490968C96ADB
S214403200C1F10501816102EB82021A4901EB82029B
S2144032106169914204D0164A1268D26AE26238BDA9
S214403220251D2846144B984770B9E36A03EB830183
S214403230104A52F821203AB910480268012101FA92
S21440324003F322EA03030360094B1B68D86AE06273
S2144032500A4A1168012383400B43136000EB800049
S2144032602946044B03EB8000054B984738BD704712
S214403270680C4020740C4020991A4000EC0C40200A
S2144032804D1A400000284DD038B50446274A1268EB
S21440329090420AD04FF0800372B683F31188BFF392
S2144032A06F8FBFF34F8F62B6FEE7C26C52B94FF0D6
S2144032B0800372B683F31188BFF36F8FBFF34F8FCF
S2144032C062B6FEE7013AC264C06AA16C88422BD05F
S2144032D052BB251D2846164B984768B9E16A01EB54
S2144032E08102144B53F8223033B913480368012245
S2144032F08A4023EA02030360A06CE062C0F1050343
S214403300A3610D4A1168012404FA00F30B431360CD
S21440331000EB80002946074B03EB8000074B98479D
S214403320204638BD00207047002038BD680C40203D
S214403330991A4000740C4020EC0C40204D1A400076
S214403340054B1B6823B1044B1A68D36C0133D36416
S214403350014B1868704700BF680C402008B54160B4
S214403360006191420CD8D21A83699A4201D3012057
S21440337008BD011D094B1868094B9847002008BD39
S2144033809A4203D2994201D3012008BD011D054B44
S2144033901868034B9847002008BD00BF6C0D4020BE
S2144033A0651A4000680D402070B5154B9847154B80
S2144033B01B6813B1144B984770BD144D2846144EE5
S2144033C0B047144C2046B047134B1D60134B1C604F
S2144033D0002210210520124B98470A4B186018B15E
S2144033E01049114B9847E5E74FF0800372B683F3D8
S2144033F01188BFF36F8FBFF34F8F62B6FEE700BFF3
S2144034007D1B40009C0D4020C91B4000700D402095
S214403410311A4000840D4020680D40206C0D40203D
S2144034209D204000E07740000527400010B584B05E
S2144034300F4B98470F4B1B6873B1002303930293BF
S2144034400193042200924FF482720B490B480C4CB5
S214403450A04708B104B010BD4FF0800372B683F3A6
S2144034601188BFF36F8FBFF34F8F62B6FEE700BF82
S214403470A93340009C0D4020E8774000AD35400021
S21440348015284000D8B130B585B015460446154AD3
S214403490106820B31A46009101950294052919DC5C
S2144034A0114B984702284FF000030CBF089A1A4663
S2144034B069460C4800680D4CA04705B030BD4FF03B
S2144034C0800372B683F31188BFF36F8FBFF34F8FBD
S2144034D062B6FEE700236946054CA047EDE70020AC
S2144034E0EBE700BF9C0D4020C13140001921400051
S2144034F0552340002DE9F04782B08046244B98473C
S2144035000746244B1B6898421BD30023C8F800305C
S214403510204B1F60384602B0BDE8F087002100917E
S2144035200B46524620461C4CA04760B94FF08003DD
S21440353072B683F31188BFF36F8FBFF34F8F62B6B7
S214403540FEE7164D164E2B681A68C2B1DB68D3F8F4
S21440355000A0DC6804F104094846B047636A204688
S2144035609847E369012BEED1A36953449A45D5D2D7
S21440357063602461494628680A4B9847E3E70A4A4D
S21440358010680649086013600123C8F80030BFE79A
S214403590E52A4000980D402085344000680D4020C4
S2144035A0991A4000651A40006C0D40202DE9F047FE
S2144035B088B0754E754FDFF8FC91DFF8FC813368B4
S2144035C01A68002A00F0CE80DB681C68B84704A85A
S2144035D06F4B98470546049B002B44D1A04212D21D
S2144035E00022611B6B4B18686B4B98476B4B984798
S2144035F000283AD14FF08053C9F80030BFF34F8FC0
S214403600BFF36F8F31E0654B98473368DB68D3F87C
S2144036100CA00AF10400C047DAF81C30012B04D095
S214403620DAF82430504698471FE0DAF81810234658
S2144036302A46214450465A4DA8470128F0D1002139
S21440364000910B4622465046564CA0470028E7D1EC
S2144036504FF0800372B683F31188BFF36F8FBFF3CA
S2144036604F8F62B6FEE74D4B98474A4D4E4C06E0AC
S21440367007990698059B9847049B002B09DA002378
S2144036801A4604A92868A047002898D0049B002B17
S214403690EEDBDDF818A0DAF8143013B10AF10400B6
S2144036A0C04703A83A4B9847049B092BE7D801A28A
S2144036B052F823F0DD364000DD364000DD3640006F
S2144036C07F364000313740005D374000DD364000F1
S2144036D0DD3640007F36400031374000059CDAF842
S2144036E0181023460246214450462D4CA047012838
S2144036F0BCD1DAF8243050469847DAF81C30012B13
S214403700B4D1DAF81820002100910B4605980244FF
S2144037105046244CA0470028A8D14FF0800372B6EC
S21440372083F31188BFF36F8FBFF34F8F62B6FEE708
S2144037300599CAF8181031B103460246014450466E
S214403740174CA04792E74FF0800372B683F3118878
S214403750BFF36F8FBFF34F8F62B6FEE75046134BF3
S214403760984783E7B84704A8094B98470546049B03
S214403770002B7FF478AF0E4B1B681A68B2FA82F2C1
S214403780520900242DE700BF680D4020D52A40008E
S214403790F53440009C0D4020392740003D2C400029
S2144037A05D3340008534400035254000091E40000A
S2144037B06C0D402004ED00E0991A400010B582B030
S2144037C031238DF804304FF080524FF02051084896
S2144037D0084B9847B0FA80F040098DF80500064B34
S2144037E0186800231A4601A9044CA04702B010BD31
S2144037F000140E40C9114000C00E40205523400022
S21440380010B582B032238DF804304FF000424FF0AE
S21440381020510848084B9847B0FA80F040098DF888
S2144038200500064B186800231A4601A9044CA04719
S21440383002B010BD00120E40C9114000C00E40201C
S2144038405523400010B582B033238DF804304FF432
S21440385000224FF020510848084B9847B0FA80F0B5
S21440386040098DF80500064B186800231A4601A942
S214403870044CA04702B010BD000E0E40C9114000D7
S214403880C00E40205523400010B582B045238DF829
S214403890043004224FF020510848094B9847B0FAAC
S2144038A080F040098DF80500064B186800231A463C
S2144038B001A9054CA04702B010BD00BF000E0E4047
S2144038C0C9114000C00E40205523400030B585B099
S2144038D0002401940C4B5C669B6E03930B4B18685C
S2144038E0234601AA03A90A4DA8470A4B01225A6655
S2144038F09B6E04A941F8083D074B1868234601AA69
S214403900A84705B030BD00BF00C00340BC0E4020F5
S2144039105523400000400640AC0E40202DE9F047BD
S2144039208EB000260D960127304DDFF8E890DFF880
S214403930E8801FE02E4C206800234FF0FF321946E7
S214403940DFF8C8A0D0472B482B4B98472068002369
S2144039501A461946294CA04786F00104042FD4BFC6
S214403960002404F001042CB1254B18680DA9254B02
S2144039709847264609AB0AAA0BA92846C84705AB6E
S214403980009306AB07AA08A92846C0471E4B1868EE
S21440399000234FF47A720CA91C4CA0470028C9D0CB
S2144039A0134C206800234FF0FF321946DFF85CA026
S2144039B0D0470C9B0393099B02930A9B01930B9B56
S2144039C00093089B079A06991148DFF82CA0D04729
S2144039D0206800231A461946084CA04740F6B733DD
S2144039E00C9A9A42B8D90137B6E700BF60180E4025
S2144039F0B00E402014794000854840001921400010
S214403A00B40E402055244000BC0E402035254000D2
S214403A10E8784000C7044000B10540002DE9F04773
S214403A208EB000260D960127304DDFF8E890DFF87F
S214403A30E8801FE02E4C206800234FF0FF321946E6
S214403A40DFF8C8A0D0472B482B4B98472068002368
S214403A501A461946294CA04786F00104042FD4BFC5
S214403A60002404F001042CB1254B18680DA9254B01
S214403A709847264609AB0AAA0BA92846C84705AB6D
S214403A80009306AB07AA08A92846C0471E4B1868ED
S214403A9000234FF47A720CA91C4CA0470028C9D0CA
S214403AA0134C206800234FF0FF321946DFF85CA025
S214403AB0D0470C9B0393099B02930A9B01930B9B55
S214403AC00093089B079A06991148DFF82CA0D04728
S214403AD0206800231A461946084CA04740F6B733DC
S214403AE00C9A9A42B8D90137B6E700BF60180E4024
S214403AF0B00E40201479400085484000192140000F
S214403B00B40E402055244000AC0E402035254000E1
S214403B103C794000C7044000B10540002DE980488C
S214403B2091B000230F93564DDFF880A1DFF88091C7
S214403B30544C554FDFF87C8127E0544E30680023C4
S214403B404FF0FF321946DFF85CB1D8479DF8393060
S214403B5004939DF8383003930B9B02930C9B019380
S214403B600D9B00930A9B099A08994948DFF848B18B
S214403B70D847306800231A461946464EB0471AE0E2
S214403B80454B18680FA9454B98470BAB0CAA0DA997
S214403B902846D04707AB009308AB09AA0AA928468F
S214403BA0C8473F4B186800234FF47A720EA93D4E23
S214403BB0B0470028C1D14FF080524FF020512046E8
S214403BC0394B984740B94FF000424FF020513846A5
S214403BD0354B98470028D3D04FF080524FF02051B5
S214403BE02046314B984740B94FF400224FF02051C1
S214403BF040462D4B98470028C2D04FF000424FF029
S214403C0020513846284B984740B94FF400224FF091
S214403C1020514046244B98470028B1D04FF0805260
S214403C204FF020512046204B984738B904224FF099
S214403C30205140461C4B98470028A1D04FF00042E8
S214403C404FF020513846184B984738B904224FF069
S214403C5020514046144B9847002891D04FF40022FC
S214403C604FF020514046104B984700288DD10422F3
S214403C704FF0205140460C4B9847002885D17FE7AF
S214403C8060180E4000140E4000120E40B00E402049
S214403C90A479400019214000B80E40205524400029
S214403CA0C00E402035254000C9114000C7044000E2
S214403CB0B1054000000E0E408548400000B583B078
S214403CC0064B9847FF26064D064C009602230422D4
S214403CD00C210846A847C820A047F6E7D50B400069
S214403CE0690A40005D2D4000F0B583B005460C469D
S214403CF0002301932A4B984213D02A4B984218D05F
S214403D00294B98421DD0294B9D4222D0284B9D429C
S214403D1027D0284B9D422ED0274B9D4235D003B00E
S214403D20F0BD1F46254E21463846B0470028FAD1FA
S214403D30E9E71F46214E21463846B0470028FAD1CB
S214403D40E4E71F461D4E21463846B0470028FAD1C4
S214403D50DFE71F46194E21463846B0470028FAD1BD
S214403D60DAE71E46164D01A93046A8470028FAD184
S214403D70019B2370D3E71E46114D01A93046A84744
S214403D800028FAD1019B2370C9E71E460C4D01A9B5
S214403D903046A8470028FAD1019B2370BFE700BFF2
S214403DA000080E40000A0E40001A0E40001C0E404E
S214403DB0004002400080024000C002405B164000C7
S214403DC06717400070B50C462A4B984213D02A4BD2
S214403DD0984219D0294B98421FD0294B984225D05B
S214403DE0284B98422BD0284B984231D0274B9842AC
S214403DF037D0002070BD1E46254D21463046A84788
S214403E000028FAD1012070BD1E46214D214630467D
S214403E10A8470028FAD1012070BD1E461C4D2146F9
S214403E203046A8470028FAD1012070BD1E46184DDE
S214403E3021463046A8470028FAD1012070BD1E46CC
S214403E40144D21463046A8470028FAD1012070BDBF
S214403E501E46104D21463046A8470028FAD101207C
S214403E6070BD1E460B4D21463046A8470028FAD165
S214403E70012070BD00080E40000A0E40001A0E4099
S214403E80001C0E40004002400080024000C002403D
S214403E90491640005117400008B50A4601460248F8
S214403EA0024B9847FEE700BFD47940008548400063
S214403EB070474FF0800372B683F31188BFF36F8F5D
S214403EC0BFF34F8F62B6FEE738B504460D46064B45
S214403ED0984720B929462046044B984738BD29467E
S214403EE02046034B984738BD65134000C11140003B
S214403EF0C511400000B583B000210648064B9847E0
S214403F0001900223054A136002F52032136003B085
S214403F105DF804FB00C000402509400000C0034097
S214403F2000B583B001210548054B98470190012113
S214403F300448054B984703B05DF804FB00C00040BA
S214403F4025094000000E0E40C93E400000B583B033
S214403F5002210648064B984701904FF0804105489D
S214403F60054B984703B05DF804FB00BF00C0004017
S214403F702509400000120E40C93E400038B51248A0
S214403F80124B984710F0040F02D00122104B1A70C3
S214403F9010F0020F02D001220E4B1A700A4D042177
S214403FA028460D4CA04702212846A0470121284616
S214403FB0A04708212846A04710212846A047202190
S214403FC02846A04738BD00BF60180E40DD064000BA
S214403FD0A10D4020A00D4020E10640002DE9F04311
S214403FE085B006460C461746984608461C4B9847EA
S214403FF01C4D009502AB03AA29464046DFF8809048
S214404000C847029A42F4804239463046164B984793
S214404010039AB5FBF2F2B2FBF8F239463046134B40
S214404020984763B2002B13DB114A8021D1545B09B9
S21440403004F01F04012202FA04F40E4A42F8234018
S2144040401022394630460C4B984705B0BDE8F08301
S21440405004F00F01094A0A4480211176E7E700BFC1
S214404060F515400000A3E111F30840001509400093
S21440407000E400E000E100E01D094000FCEC00E048
S2144040802D0940002DE980488DB03B4D0A23012282
S21440409018212846394CA0470A23022219212846CF
S2144040A0A047374D0024DFF8D0A0DFF8FC90DFF8BB
S2144040B0FC805EE0334B1868234601222146A84721
S2144040C0002837D109AB0AAA0BA93046B84705AB3A
S2144040D0009306AB07AA08A93046DFF8D4B0D84705
S2144040E0294B1868234601222146A8470028E1D0DC
S2144040F001215046C847D8F8000023464FF0FF320B
S2144041002146A847214B0393099B02930A9B0193A0
S2144041100B9B0093089B079A06991D48DFF878B0DA
S214404120D847D8F80000234622462146DFF86CB030
S214404130D847BFE702215046C847D8F80000234674
S2144041404FF0FF322146A847124B0393099B029338
S2144041500A9B01930B9B0093089B079A06990C4871
S2144041600D4EB047D8F800002346224621460B4E57
S214404170B0470B4E0B4FA5E700C00040DD3F400068
S21440418035254000B40E4020B80E402094794000BB
S214404190687940009C7940008548400019214000DD
S2144041A060180E40C70440000D094000B00E402085
S2144041B0B10540002DE9F0412DED028B82B008EEAE
S2144041C0100A88461746204C002120461F4B984729
S2144041D09FED1F7AC7EE087AFDEEE77ACDED017ABD
S2144041E0BDF8041020461B4B984717F4803F16D165
S2144041F0194B0822C3F88020C3F88021802183F819
S21440420003131A6017F4403F19D14FF440310E485B
S214404210124B984702B0BDEC028BBDE8F0812046B9
S2144042200F4B98470446084E0D4D3046A8478442EB
S214404230FBD004EB080104480A4B9847D8E73946B8
S2144042400148094B9847E5E730180E40F90640000C
S21440425000000047E506400000E100E03907400066
S2144042604D074000650740002507400008B509484F
S214404270094B984710F0020F00D108BD0222074BA9
S2144042801A6003F520331A6005214FF07E50044B28
S2144042909847F2E730180E406107400000C00340E0
S2144042A0B541400082B070B582B005460C4606A9BE
S2144042B081E80C0002201D4B9847002128461C4BE5
S2144042C09847099B0093089B079A06992846194EDB
S2144042D0B0470C9B0B9A0A992846174EB04762B2D5
S2144042E0E4B204F01F0101238B405609134800EB4B
S2144042F08601C1F88030C1F88031002A0FDB0F49B3
S2144043001144802281F8002340F826300D99284633
S2144043100B4B984702B0BDE8704002B0704704F0BF
S2144043200F04084A80211155EEE700BFF5154000FE
S214404330AD044000250640002105400000E100E0B5
S214404340C304400014ED00E02DE9F0418AB0044675
S2144043500D4616469846214B984704A8204B98474A
S21440436004A920461F4B9847636823F08F03636079
S21440437003A81D4B984700238DF80D30B7B203AA0B
S21440438039462046194B984767664FF40073E366F4
S21440439001A8174B984701A92046164B984701237A
S2144043A0424631462046144CA0476BB2002B0EDBEB
S2144043B0124A8021D1545B0905F01F05012202FAFA
S2144043C005F50F4A42F823500AB0BDE8F08105F0E3
S2144043D00F010C4A0A4480211176ECE7490440005C
S2144043E079024000C9024000A90240003502400060
S2144043F0B302400065024000C903400000E400E00C
S21440440000E100E0FCEC00E02DE9F04182B00A203B
S2144044104D4CA0470C20A0470B20A0471020A0479B
S2144044200C20A0470A20A047484C002301224FF00A
S21440443040512046464DA847464E00234FF0804206
S2144044404FF040513046A847DFF83481002304221D
S2144044504FF040514046A8473F4F09234FF0805207
S2144044604FF020513846A84709234FF000424FF0FE
S21440447020513046A84709234FF400224FF02051E0
S2144044802046A847092304224FF020512046A8473B
S214404490324B009340234FF0805210213846304D27
S2144044A0A847304B009340234FF000420C21304643
S2144044B0A8472D4B009340234FF400220A21204664
S2144044C0A8472A4B0093402304220A212046A847A7
S2144044D04FF080513846264DA8474FF000413046B1
S2144044E0A8474FF400212046A84704212046A84765
S2144044F03846204DA8473046A8472046A84720467D
S214404500A8471D4B4FF480321A60802283F8102350
S2144045104FF48051196083F80C234FF48061196082
S21440452083F80A23196083F80A2301212046134C96
S214404530A0474FF080413046A04704214046A04760
S21440454002B0BDE8F08100BFF5154000000E0E40F9
S214404550D512400000120E4000140E40BD374000F9
S214404560011440000138400045384000893840007A
S214404570A3134000A713400000E100E0C111400033
S21440458000100E4080B594B0774B9847774B9847CD
S214404590774D784B1D60784A784B1A60784A794B4D
S2144045A01A604FF4E1330793C02308934FF4006337
S2144045B0099300240A940B940E20734B9847734A31
S2144045C007A92846724B98472846724B9847284674
S2144045D0714B9847714E336821469868704DA8478E
S2144045E0336821465868A847336821469868A847E4
S2144045F06C4B98470DAD6C4E0FCE0FC596E8070036
S21440460085E8070005946D460FAE0FCE0FC533689C
S2144046102B600DAB0CCB02216448654DA8470120AA
S214404620644B9847644B1860224602210A20634D2B
S214404630A847634B1860224604212020A847614BB8
S2144046401860224604212020A8475F4B18600322AA
S21440465021460120A8475D4B18601B68002B7BD085
S214404660032200210120554B9847594B18601B6880
S214404670002B75D0574F584D3B4600221D212846EB
S214404680564EB04701246C6105F520353B46224620
S21440469028212846B04702236B61A5F5B02523465E
S2144046A00022172128464E4CA047002128464D4B55
S2144046B09847002303930293019300934FF4C062FC
S2144046C049494A484A4CA047012802D049484A4BE3
S2144046D09847002303930293019300934FF420627C
S2144046E046494748424CA047012802D04548424BDD
S2144046F09847002303930293019300934FF420625C
S214404700414942483A4CA047012802D040483A4BDB
S2144047109847002303930293019300934FF400724B
S2144047203C493D48324CA047012802D03B48324BDA
S2144047309847002303930293019300934FF400722B
S214404740374938482A4CA047012802D036482A4BD9
S2144047509847364B9847FEE73548274B98477FE7BC
S2144047603348254B984785E72D0F400029104000D9
S21440477000800240680E4020C53D4000640E402048
S214404780E93C4000600E4020F515400080D1F0081E
S214404790F1164000451740004B17400014004020DB
S2144047A03950400009444000F077400060180E4001
S2144047B0A5424000FD224000B00E40209D20400013
S2144047C0C00E4020BC0E4020AC0E4020B40E402010
S2144047D0B80E4020CD38400000C00340494340005A
S2144047E0DD3F40000D09400028784000BD3C4000B9
S2144047F015284000307840008548400050784000FA
S2144048001D39400058784000787840001D3A4000F6
S21440481080784000947940001D3B4000A0784000DE
S214404820C078400085404000C8784000492A400093
S2144048300C78400070B50F4E0F4D761BB61018BF63
S214404840002405D0013455F8043B9847A642F9D1D8
S2144048500A4E0B4D761B03F07DF9B61018BF0024A8
S21440486006D0013455F8043B9847A642F9D170BDAE
S21440487070BD00BF607B4000607B4000687B4000AE
S214404880607B40000FB400B5074983B004AB0868AE
S21440489053F8042B8168019300F060FD03B05DF887
S2144048A004EB04B0704700BF14004020024B0146A2
S2144048B0186800F00BB800BF14004020024B0146B9
S2144048C0186801F067BE00BF140040202DE9F04F85
S2144048D001F10B06162E83B0054640F29E8036F058
S2144048E0070600F1BD80B14200F2BA8000F086FBB8
S2144048F0B6F5FC7FC0F09382730A00F0B880042BB4
S21440490000F27981B30903F1390003F1380EC30090
S214404910BF4F3B44A3F108015C68A14206D10CE0BE
S214404920002A80F2AA80E468A14206D0636823F099
S21440493003039A1B0F2AF3DD70463C69DFF8E4E276
S214404940744500F0AB81636823F003039A1B0F2A7B
S21440495000F39081002AC7F814E0C7F810E080F210
S2144049609D80B3F5007F80F06181DB0803F1010C88
S21440497099107A6857F83C80C4F8088001238B4029
S21440498007EBCC0113430839E1607B6047F83C40B5
S214404990C8F80C408210012494409C4200F28B8060
S2144049A01C4206D120F0030064001C4200F10400C3
S2144049B0FAD007EBC009CC468046DCF80C309C4564
S2144049C007D16DE1002A80F27B81DB689C4500F0D0
S2144049D06781596821F003018A1B0F2AF2DDD3F85C
S2144049E00CC0D3F8088000939C19284646F0010670
S2144049F042F001055E60C8F80CC0CCF808807C61C7
S214404A003C61C4F80CE0C4F808E065605A5000F019
S214404A10FBFA009B03F108041EE0102920D800F0A2
S214404A20EDFA102618230220794F3B44A3F10802E2
S214404A305C68944200F03D816368E168A66823F0B4
S214404A400303234428465A68F16042F001028E6010
S214404A505A6000F0D9FA0834204603B0BDE8F08F1B
S214404A6000240C2320462B6003B0BDE8F08F402086
S214404A704FF400734FF03F0E4AE72344E1685A680C
S214404A80A66842F00102F16028468E605A6000F047
S214404A90BBFA0834204603B0BDE8F08F23442846CE
S214404AA05A6842F001025A6000F0AEFA08342046D6
S214404AB003B0BDE8F08FBC68636823F00308B045D8
S214404AC004D3A8EB06030F2B00F38580DFF858913C
S214404AD0504BD9F800201B680132334404EB080AD7
S214404AE000F0558103F580530F3323F47F6B2BF092
S214404AF00F0B5946284600F08DFA411C024600F03E
S214404B00FC80824500F2F780434B1968594419608F
S214404B1000F04D81D9F8000001301BBFA2EB0A0A15
S214404B205144C9F80020196012F0070100F01581C1
S214404B30C1F10800C1F580510244083102EB0B096F
S214404B40C9F30B09A1EB090949462846019300928F
S214404B5000F060FA431C9DE80C0000F04381801A88
S214404B60484440F001001968BA604944BC4250606D
S214404B70196017D0B8F10F0F40F2FB806068A8F1BB
S214404B800C0222F0070204EB020E00F001004FF088
S214404B90050C10430F2A6060CEF804C0CEF808C05B
S214404BA000F217811D4BBC681A68914288BF196095
S214404BB01B4B1A689142626888BF196022F0030254
S214404BC09642A2EB060301D80F2B04DC284600F0E1
S214404BD01BFA002440E7A21943F0010346F0010601
S214404BE066602846BA60536000F00EFA08342046E5
S214404BF003B0BDE8F08F142B71D9542B00F2A3807C
S214404C00330B03F16F0003F16E0EC30080E600BF66
S214404C1040044020D40D4020A40D4020CC0D402020
S214404C20D00D402048044020480840205A0A042A14
S214404C305BD9142A00F2AE8002F15C01C9005B32F7
S214404C4007EB010C7958ACF1080C8C4500F08880D5
S214404C504A6822F00302934273D289688C45F7D1A2
S214404C60DCF80C207B68E260C4F808C09460CCF89E
S214404C700C408FE6A11946F0010C42F00106C4F83C
S214404C8004C0284679613961C1F80CE0C1F808E0F3
S214404C904E60E25000F0B8F90834DDE67B6879E60D
S214404CA008F1010818F0030F0CF1080C7FF485AEEC
S214404CB02DE0DC68A34208BF02303FF43EAEBBE6C0
S214404CC019441C464A68DB6854F8086F42F00102F3
S214404CD04A602846F3609E6000F096F9BCE603F111
S214404CE05C0003F15B0EC30012E69A0902F139013B
S214404CF0C9003832A4E7BC4254D0BC68626822F08F
S214404D0003025DE759F80839994540F0868010F06F
S214404D10030F00F1FF30F5D17B6823EA04037B6084
S214404D2064009C423FF6C7AE002C3FF4C4AE1C4223
S214404D3040467FF43EAE64001C4200F10400FAD0C8
S214404D4037E68C468CE7B3F5AA7F15D8F30B03F10C
S214404D50780003F1770EC300DAE54FF48051EDE6B4
S214404D607B689210012101FA02F213437B6062468F
S214404D7079E70123536029E740F25452934222D800
S214404D80B30C03F17D0003F17C0EC300C0E503F1D4
S214404D90100BAEE6542A29D81A0B02F16F01C9004F
S214404DA06E324DE7204B196859441960B2E6CAF393
S214404DB00B0000287FF4AEAE08EB0B03BA6843F056
S214404DC001035360EEE67F204FF47E734FF07E0E75
S214404DD09EE504F108012846009301F0DBFB009BAA
S214404DE01968DFE601204FF00009BCE6B2F5AA7F5D
S214404DF005D8DA0B02F17801C900773220E740F295
S214404E0054518A4205D89A0C02F17D01C9007C3281
S214404E1016E74FF47E717E2212E77B6880E7F00843
S214404E2006F1080300E600BFA40D4020844641EA90
S214404E30000313F003036DD1403A41D351F8043BCD
S214404E4040F8043B51F8043B40F8043B51F8043B1F
S214404E5040F8043B51F8043B40F8043B51F8043B0F
S214404E6040F8043B51F8043B40F8043B51F8043BFF
S214404E7040F8043B51F8043B40F8043B51F8043BEF
S214404E8040F8043B51F8043B40F8043B51F8043BDF
S214404E9040F8043B51F8043B40F8043B51F8043BCF
S214404EA040F8043B51F8043B40F8043B51F8043BBF
S214404EB040F8043B51F8043B40F8043B403ABDD22E
S214404EC0303211D351F8043B40F8043B51F8043BD0
S214404ED040F8043B51F8043B40F8043B51F8043B8F
S214404EE040F8043B103AEDD20C3205D351F8043B5F
S214404EF040F8043B043AF9D2043208D0D2071CBF2B
S214404F0011F8013B00F8013B01D30B880380604653
S214404F10704700BF082A13D38B078DD010F00303C9
S214404F208AD0C3F10403D21ADB071CBF11F8013B39
S214404F3000F8013B80D331F8023B20F8023B7BE788
S214404F40043AD9D3013A11F8013B00F8013BF9D2B3
S214404F500B7803704B7843708B788370604670474D
S214404F6070B4860746D0541E002A41D0CAB20346C3
S214404F7002E014F1FF343BD303F8012B9D07F8D130
S214404F80032C2ED9CDB245EA05250F2C45EA05451A
S214404F9019D903F110022646103E0F2E42F8105C37
S214404FA042F80C5C42F8085C42F8045C02F11002DD
S214404FB0F2D8A4F1100222F00F0204F00F041032CF
S214404FC0032C13440DD91E462246043A032A46F8BB
S214404FD0045BFAD8221F22F003020432134404F082
S214404FE003042CB1C9B21C4403F8011B9C42FBD1FC
S214404FF070BC704714460346C2E700BF014801F044
S21440500063BD00BFD40E4020014801F05FBD00BF25
S214405010D40E402038B5074C00230546084623608A
S214405020FCF7DEFC431C00D038BD2368002BFBD0C9
S2144050302B6038BDE80E402000290CBF022200221B
S2144050404FF4806300F000B82DE9F043614C2568CA
S21440505083B004460F4690461E4615B1AB6B002BF8
S21440506064D0B8F1020F06D0B8F1010F00F29F806D
S214405070002EC0F29C80636ED80734D52146284661
S21440508001F00AF9216B41B104F14003994202D084
S214405090284601F07FFA00232363B4F90C3000223F
S2144050A0A26162601A063AD423F44A6323F00303EB
S2144050B0B8F1020FA3811DD001AB6A4621462846AF
S2144050C001F006FDA3891843A081002E32D1009E30
S2144050D03046FFF7EBFB074600286BD0A38943F02A
S2144050E08003A38128E0A3899905C7D4A06D01F069
S2144050F0EBFCC3E70025616E002604F1430243F053
S21440510002030120A660CE07A3812260226160616F
S21440511001D498053ED5284603B0BDE8F083216902
S214405120284601F037FAB4F90C30BDE7284601F0BE
S2144051300BF996E7002FCBD0AB6B002B33D0009B00
S214405140B4F90C2027609E421CBF42F40062A28144
S214405150B8F1010F04BF42F00102A28192B212F0F0
S2144051600803276166610ED0D1071AD5656E764270
S214405170002315F00105A661A36009D00025284646
S21440518003B0BDE8F083A360656E15F00105F5D168
S2144051909305C0D4A06D01F099FC284603B0BDE845
S2144051A0F083A660F0E7284601F0CEF8C7E74FF058
S2144051B0FF35B0E7DDF80090B14504D04846FFF72C
S2144051C075FB074620B9B4F90C304FF0FF3592E72F
S2144051D04E4683E714004020000000000000000018
S2144051E0000000000000000000000000000000007A
S2144051F0000000000000000000000000000000006A
S21440520090F800F06DE9024520F007016FF0000CC1
S21440521010F0070491F820F040F049804FF0000469
S2144052206FF00700D1E9002391F840F000F1080044
S21440523082FA4CF2A4FA8CF283FA4CF3A2FA8CF37C
S2144052404BBBD1E9022382FA4CF200F10800A4FAE3
S2144052508CF283FA4CF3A2FA8CF3E3B9D1E9042337
S21440526082FA4CF200F10800A4FA8CF283FA4CF36E
S214405270A2FA8CF37BB9D1E9062301F1200182FA28
S2144052804CF200F10800A4FA8CF283FA4CF3A2FA2E
S2144052908CF3002BC6D0002A04BF04301A4612BA3C
S2144052A0B2FA82F2FDE8024500EBD2007047D1E93F
S2144052B0002304F00305C4F100004FEAC50514F0CE
S2144052C0040F91F840F00CFA05F562EA05021CBF9F
S2144052D063EA050362464FF00004A9E72DE9F84F5C
S2144052E04B6E9C0493462FD59368126853B30E4674
S2144052F0074602F1080919E920045FEA9A0817D020
S214405300043D002401E0A04510D0324655F8041F65
S214405310384601F0BBF8431C04F10104F3D10023E6
S214405320CBF80830CBF80430BDE8F88FDBF808300F
S2144053302AF0030AA3EB0A03CBF8083009F1080960
S214405340002BD8D10020EAE701F00AFA0023CBF878
S2144053500830CBF80430BDE8F88F00BF2DE9F04F99
S214405360ADB01D468B4690460793069018B1836BAA
S214405370002B00F0F380DBF86430BBF90C00DF074D
S21440538081B202D48E0540F1FC808C040AD4DBF84E
S214405390643040F4005123F40053ABF80C10CBF8C3
S2144053A0643089B2080740F1B380DBF81030002B38
S2144053B000F0AE8001F01A030A2B00F0B5800023FF
S2144053C00DF170090B93119310930393CDF83C9015
S2144053D0CA46CDF810B098F800304446FBB1252BAD
S2144053E002D11CE0252B03D014F8013F002BF9D145
S2144053F0A4EB08059DB1109B119ACAF800800133B2
S2144054002A44072BCAF80450119210937ADD002ADA
S21440541040F0B084039B10922B44CA4603932378F3
S214405420002B00F0E08300204FF000038DF837306B
S21440543004F1010862780546064603464FF0FF34FD
S21440544008F10108A2F12001582900F2DE82DFE8C7
S21440545011F02102DC02DC022902DC02DC02DC0262
S214405460DC02DC02DC0289029502DC02A200BD02FC
S214405470DC029F01A401A401A401A401A401A4018B
S214405480A401A401A401DC02DC02DC02DC02DC0292
S214405490DC02DC02DC02DC02DC02B201DC02DC0202
S2144054A0DC02DC02DC02DC02DC02DC02DC02DC02C7
S2144054B09701DC02DC02DC02DC02DC029B01DC023F
S2144054C0DC025302DC02DC02DC02DC02DC02DC0230
S2144054D0DC02DC02DC02DC025A021B02DC02DC02DA
S2144054E0DC026E021B02DC02DC027302DC02F50107
S2144054F082010902D702DC029A02DC02A700DC0223
S214405500DC022E020AF1080A039B2B44039386E72B
S2144055105946069800F0ACFD18BBBBF80C1001F0DD
S2144055201A030A2B7FF44BAFBBF90E30002BFFF665
S21440553046AFDBF86430DB0705D48F0503D4DBF8D1
S214405540580001F0C3FA2B4642465946069800F0EA
S2144055504DFD039003982DB0BDE8F08F00F0F4FEAB
S21440556009E7DBF86430D90704D4BBF80C309A0559
S21440557040F1AA844FF0FF33039303982DB0BDE863
S214405580F08FDBF8580001F09FFABBF90C0081B2AF
S214405590FBE67642079243F0040398F800204FE774
S2144055A008969E0600F150840799DD060A4600F1EB
S2144055B0EF83580640F1EC830E8804310027012221
S2144055C007914FF000018DF837100025611C00F060
S2144055D0168123F08001029156EA070140F01481BB
S2144055E0002C40F05C83002A40F0B78313F00103A0
S2144055F0059300F057840DF1B00B30230BF8413D76
S214405600059BA342B8BF234601930DB101330193D6
S214405610029B13F00203099302D0019B02330193CD
S214405620029B13F084030A9340F01782089B019A6A
S2144056309D1A002D40F31182102D40F39084109B4C
S214405640119AC44ED6461027A2461946069C07E035
S21440565001F1020C0EF1080E0146103D102D11DD31
S214405660481C1032072811928EE8C0001090EFDDDB
S214405670002A40F0E481103D102D11464FF0010CF9
S214405680CE46EDDC54466146F2462A44072911923E
S214405690CAF80060CAF80450109100F3EC829DF8F6
S2144056A037500AF1080A481C002D40F0DE81099B5D
S2144056B0002B00F0F88102320EA90223072811922F
S2144056C010908AE80A0040F3EA81002A40F08C8372
S2144056D00A9B802B4FF001001146CA4640F0E781F6
S2144056E0089B019D5E1B002E40F3E181102E9A4DD3
S2144056F040F35084D4461027A246069C07E001F1AA
S214405700020E0CF1080C0146103E102E11DD481C0E
S2144057101032072811928CE8A0001090EFDD002A86
S21440572040F09D82103E102E4FF0010E1146CC46A2
S214405730EDDC5446E2463244BEF1070F11928AE849
S2144057406000CDF840E000F369830AF1080A0EF1E4
S21440575001007146ABE1089613F0200240F08C83BE
S21440576013F0100140F01A8313F0400200F0168345
S21440577007980A460146043106880791002720E725
S214405780089643F01003E7E7089643F0100308E74F
S21440579043F0800398F8002052E6A2F1300100263C
S2144057A018F8012B06EB860601EB4606A2F13001FF
S2144057B00929F5D946E60896002840F0088443F0C3
S2144057C010039E0600F14C83DD0600F1F382580676
S2144057D040F1F082079DB5F900602A46F71704327B
S2144057E0304639460792002871F10002C0F25D83C8
S2144057F0611C9DF837504FF001027FF4EAAE56EA3E
S214405800070100F04D820293012A00F08C82022AA2
S21440581040F05C820B98CB46330906F00F0143EA12
S21440582007733A091E461746435C0BF8013D56EA95
S2144058300703F1D1A9EB0B030593E1E6002840F0FE
S214405840C083990600F16783DA0600F1F1805B06B3
S21440585040F1EE80079A136804320792BDF80C2098
S2144058601A80B8E507983D4A08960B920668782253
S214405870302104308DF8392043F00203079000278A
S2144058808DF8381002229CE60896002899D08DF8AC
S214405890375096E798F80020002D7FF4D1AD0120D0
S2144058A02025CDE543F0010398F80020C8E508968A
S2144058B0002840F0938329490B919F0600F1E88227
